:0300000002003CBF
:0600030011659000D832E7
:1000130011CF79649000E6780011A7D9F779FF90A2
:1000230000D87850117FD9F779329000E278001127
:10003300A7D9F79000D8C28B32D288D28A75A88507
:10004300E58075F00A84A8F075F00A84AEF0FF88A5
:10005300538E528F517F649000D87850117FDFF711
:1000630080D779019000EA780011A7D9F730B2F26E
:10007300790A9000E2780011A7D9F722E675A00764
:1000830093F59011CF08E675A00B93F59011CF0867
:10009300E675A00D93F59011CF08E675A00E93F5C4
:1000A3009011CF22E875A00793F59011CF08E8755A
:1000B300A00B93F59011CF08E875A00D93F590115F
:1000C300CF08E875A00E93F59011CF227C047BFA3C
:1000D300DBFEDCFA22C0F9A4B0999282F88090FF8B
:0B00E300FFFFFF9287C08CFFC08E8ED5
:00000001FF
